374831    MR2BW9F30G1106748   MR2BW9F30G1106748   2NZ-7634175 040BLANCO                   20152016          AUTOMOVIL           TOYOTA  0936YARIS          XLi 1.3 M/T    NCP151L-BEMDK BM0584/6000   GSEDAN                    04024410170014752550        0015000100505  04401299494563FA01-001463920160106003417201601130001226847000000000000002208320001447679
376714    MR2BW9F34G1109264   MR2BW9F34G1109264   2NZ-7671439 4W1BEIGE MICA METALICO      20152016          AUTOMOVIL           TOYOTA  0938YARIS          GLi 1.3 M/T    NCP151L-BEMRK CM0584/6000   GSEDAN                    04024410170014752550        0015000103005  04401299494201FA01-001463920160106003417201601130001275576000000000000002296040001505180
351211    MR2BW9F34F1085661   MR2BW9F34F1085661   2NZ-7385037 3S1ROJO MICA METALICO       20152015          AUTOMOVIL           TOYOTA  0937YARIS          XLi 1.3 A/T    NCP151L-BEPDK AA0484/6000   GSEDAN                    04024410170014752550        0015000102505  04401299102449FA01-001463920160106003417201601130001307780000000000000002354000001543180
353760    JTMZD9EV9FD055455   JTMZD9EV9FD055455   3ZR-6348813 1F7PLATA METALICO           20152015          CAMIONETA RURAL     TOYOTA  1110RAV4           2.0 4X2 MT     ZSA42L-ANFXK 13M06146/6200  GSUV                 4X2  04024570184517152660        00200001480050404501987105601FA01-001463920160106003417201601130002212017000000000000003981630002610180
361888    JTMZD9EV9FJ031433   JTMZD9EV9FJ031433   3ZR-6396884 4U5MARRON OSCURO METALICO   20152015          CAMIONETA RURAL     TOYOTA  1110RAV4           2.0 4X2 MT     ZSA42L-ANFXK 13M06146/6200  GSUV                 4X2  04024570184517152660        00200001480050404501987164051FA01-001463920160106003417201601130002212017000000000000003981630002610180
375832    MR0JB8DD3G3501274   MR0JB8DD3G3501274   2GD-0048254 040BLANCO                   20152016          CAMIONETA PICK UP   TOYOTA  1211HILUX          4x2 D/C 2GD SR GUN135L-DTFSHF M06147.5/3400DPICK UP                  04025335185518153085        0028100199005  04402393492296FA01-001463920160106003417201601130002154313000021543100004265540002796298
375842    MR0JB8DD2G3501203   MR0JB8DD2G3501203   2GD-4037806 040BLANCO                   20152016          CAMIONETA PICK UP   TOYOTA  1211HILUX          4x2 D/C 2GD SR GUN135L-DTFSHF M06147.5/3400DPICK UP                  04025335185518153085        0028100199005  04402393494552FA01-001463920160106003417201601130002154313000021543100004265540002796298
370360    MHFYZ59G2F4016177   MHFYZ59G2F4016177   1KD-U778443 218NEGRO MICA               20152015          CAMIONETA RURAL     TOYOTA  1025FORTUNER       3.0 MT         KUN51L-EKMSYG CM05163.2/3400DSUV                 4X4  04024705184018502750        00256001970070604502982494113FA01-001463920160106003417201601130003380815000033808200006694020004388299
356215    MR2BW9F32F1087330   MR2BW9F32F1087330   2NZ-7400558 1D4PLATA METALICO           20152015          AUTOMOVIL           TOYOTA  0938YARIS          GLi 1.3 M/T    NCP151L-BEMRK CM0584/6000   GSEDAN                    04024410170014752550        0015000103005  04401299281415FA01-001464320160106003417201601130001275576000000000000002296040001505180
358738    MR2BW9F33F1092407   MR2BW9F33F1092407   2NZ-7466061 1G3GRIS OSCURO METALICO     20152015          AUTOMOVIL           TOYOTA  0938YARIS          GLi 1.3 M/T    NCP151L-BEMRK CM0584/6000   GSEDAN                    04024410170014752550        0015000103005  04401299281122FA01-001464420160106003417201601130001275576000000000000002296040001505180
358747    MR2BW9F32F1092690   MR2BW9F32F1092690   2NZ-7469078 1G3GRIS OSCURO METALICO     20152015          AUTOMOVIL           TOYOTA  0938YARIS          GLi 1.3 M/T    NCP151L-BEMRK CM0584/6000   GSEDAN                    04024410170014752550        0015000103005  04401299281177FA01-001464520160106003417201601130001275576000000000000002296040001505180
358836    MR2BW9F37F1092863   MR2BW9F37F1092863   2NZ-7471752 218NEGRO MICA               20152015          AUTOMOVIL           TOYOTA  0938YARIS          GLi 1.3 M/T    NCP151L-BEMRK CM0584/6000   GSEDAN                    04024410170014752550        0015000103005  04401299281078FA01-001464920160106003417201601130001275576000000000000002296040001505180
356210    MR2BW9F35F1087239   MR2BW9F35F1087239   2NZ-7399417 1D4PLATA METALICO           20152015          AUTOMOVIL           TOYOTA  0938YARIS          GLi 1.3 M/T    NCP151L-BEMRK CM0584/6000   GSEDAN                    04024410170014752550        0015000103005  04401299281232FA01-001465420160107003417201601140001275576000000000000002296040001505180
